{
  "_format": "hh-sol-artifact-1",
  "contractName": "Web3RSVP",
  "sourceName": "contracts/Web3RSVP.sol",
  "abi": [
    {
      "anonymous": false,
      "inputs": [
        {
          "indexed": false,
          "internalType": "bytes32",
          "name": "eventId",
          "type": "bytes32"
        },
        {
          "indexed": false,
          "internalType": "address",
          "name": "attendeeAddress",
          "type": "address"
        }
      ],
      "name": "ConfirmedAttendee",
      "type": "event"
    },
    {
      "anonymous": false,
      "inputs": [
        {
          "indexed": false,
          "internalType": "bytes32",
          "name": "eventId",
          "type": "bytes32"
        }
      ],
      "name": "DepositsPaidOut",
      "type": "event"
    },
    {
      "anonymous": false,
      "inputs": [
        {
          "indexed": false,
          "internalType": "bytes32",
          "name": "eventId",
          "type": "bytes32"
        },
        {
          "indexed": false,
          "internalType": "address",
          "name": "creatorAddress",
          "type": "address"
        },
        {
          "indexed": false,
          "internalType": "uint256",
          "name": "eventTimestamp",
          "type": "uint256"
        },
        {
          "indexed": false,
          "internalType": "uint256",
          "name": "maxCapacity",
          "type": "uint256"
        },
        {
          "indexed": false,
          "internalType": "uint256",
          "name": "deposit",
          "type": "uint256"
        },
        {
          "indexed": false,
          "internalType": "string",
          "name": "eventDataCID",
          "type": "string"
        }
      ],
      "name": "NewEventCreated",
      "type": "event"
    },
    {
      "anonymous": false,
      "inputs": [
        {
          "indexed": false,
          "internalType": "bytes32",
          "name": "eventId",
          "type": "bytes32"
        },
        {
          "indexed": false,
          "internalType": "address",
          "name": "attendeeAdress",
          "type": "address"
        }
      ],
      "name": "NewRSVP",
      "type": "event"
    },
    {
      "inputs": [
        {
          "internalType": "bytes32",
          "name": "eventId",
          "type": "bytes32"
        }
      ],
      "name": "confirmAllAttendees",
      "outputs": [],
      "stateMutability": "nonpayable",
      "type": "function"
    },
    {
      "inputs": [
        {
          "internalType": "bytes32",
          "name": "eventId",
          "type": "bytes32"
        },
        {
          "internalType": "address",
          "name": "attendee",
          "type": "address"
        }
      ],
      "name": "confirmAttendee",
      "outputs": [],
      "stateMutability": "nonpayable",
      "type": "function"
    },
    {
      "inputs": [
        {
          "internalType": "uint256",
          "name": "eventTimestamp",
          "type": "uint256"
        },
        {
          "internalType": "uint256",
          "name": "deposit",
          "type": "uint256"
        },
        {
          "internalType": "uint256",
          "name": "maxCapacity",
          "type": "uint256"
        },
        {
          "internalType": "string",
          "name": "eventDataCID",
          "type": "string"
        }
      ],
      "name": "createNewEvent",
      "outputs": [],
      "stateMutability": "nonpayable",
      "type": "function"
    },
    {
      "inputs": [
        {
          "internalType": "bytes32",
          "name": "eventId",
          "type": "bytes32"
        }
      ],
      "name": "createNewRSVP",
      "outputs": [],
      "stateMutability": "payable",
      "type": "function"
    },
    {
      "inputs": [
        {
          "internalType": "bytes32",
          "name": "",
          "type": "bytes32"
        }
      ],
      "name": "idToEvent",
      "outputs": [
        {
          "internalType": "bytes32",
          "name": "eventId",
          "type": "bytes32"
        },
        {
          "internalType": "string",
          "name": "eventDataCID",
          "type": "string"
        },
        {
          "internalType": "address",
          "name": "eventOwner",
          "type": "address"
        },
        {
          "internalType": "uint256",
          "name": "eventTimestamp",
          "type": "uint256"
        },
        {
          "internalType": "uint256",
          "name": "deposit",
          "type": "uint256"
        },
        {
          "internalType": "uint256",
          "name": "maxCapacity",
          "type": "uint256"
        },
        {
          "internalType": "bool",
          "name": "paidOut",
          "type": "bool"
        }
      ],
      "stateMutability": "view",
      "type": "function"
    },
    {
      "inputs": [
        {
          "internalType": "bytes32",
          "name": "eventId",
          "type": "bytes32"
        }
      ],
      "name": "withdrawUnclaimedDeposits",
      "outputs": [],
      "stateMutability": "nonpayable",
      "type": "function"
    }
  ],
  "bytecode": "0x608060405234801561001057600080fd5b5061219c806100206000396000f3fe6080604052600436106100545760003560e01c806292098c1461005957806317f0165a146100825780636dcdf2cd1461009e57806379747571146100c7578063909ef021146100f0578063acdbe01214610133575b600080fd5b34801561006557600080fd5b50610080600480360381019061007b91906113b9565b61015c565b005b61009c60048036038101906100979190611477565b6103d0565b005b3480156100aa57600080fd5b506100c560048036038101906100c09190611502565b61063d565b005b3480156100d357600080fd5b506100ee60048036038101906100e99190611477565b610b16565b005b3480156100fc57600080fd5b5061011760048036038101906101129190611477565b610fce565b60405161012a9796959493929190611623565b60405180910390f35b34801561013f57600080fd5b5061015a60048036038101906101559190611477565b6110c5565b005b60003330878787604051602001610177959493929190611702565b604051602081830303815290604052805190602001209050600080600083815260200190815260200160002060030154146101e7576040517f08c379a00000000000000000000000000000000000000000000000000000000081526004016101de906117ad565b60405180910390fd5b60608060405180610120016040528084815260200186868080601f016020809104026020016040519081016040528093929190818152602001838380828437600081840152601f19601f8201169050808301925050505050505081526020013373ffffffffffffffffffffffffffffffffffffffff168152602001898152602001888152602001878152602001838152602001828152602001600015158152506000808581526020019081526020016000206000820151816000015560208201518160010190805190602001906102bf9291906111e7565b5060408201518160020160006101000a81548173ffffffffffffffffffffffffffffffffffffffff021916908373ffffffffffffffffffffffffffffffffffffffff160217905550606082015181600301556080820151816004015560a0820151816005015560c082015181600601908051906020019061034192919061126d565b5060e082015181600701908051906020019061035e92919061126d565b506101008201518160080160006101000a81548160ff0219169083151502179055509050507f2553138c3f9c9008f266dbdbe9fc64f5b71e098d06ef714a190a65a8b9fc6bf383338a898b8a8a6040516103be9796959493929190611809565b60405180910390a15050505050505050565b600080600083815260200190815260200160002090508060040154341461042c576040517f08c379a0000000000000000000000000000000000000000000000000000000008152600401610423906118bf565b60405180910390fd5b8060030154421115610473576040517f08c379a000000000000000000000000000000000000000000000000000000000815260040161046a9061192b565b60405180910390fd5b80600501548160060180549050106104c0576040517f08c379a00000000000000000000000000000000000000000000000000000000081526004016104b790611997565b60405180910390fd5b60005b81600601805490508160ff16101561059a573373ffffffffffffffffffffffffffffffffffffffff16826006018260ff1681548110610505576105046119b7565b5b9060005260206000200160009054906101000a900473ffffffffffffffffffffffffffffffffffffffff1673ffffffffffffffffffffffffffffffffffffffff161415610587576040517f08c379a000000000000000000000000000000000000000000000000000000000815260040161057e90611a32565b60405180910390fd5b808061059290611a8e565b9150506104c3565b5080600601339080600181540180825580915050600190039060005260206000200160009091909190916101000a81548173ffffffffffffffffffffffffffffffffffffffff021916908373ffffffffffffffffffffffffffffffffffffffff1602179055507fb79f4240bbdd272d98e02a5db7f0cf156e5fc000961c517670a26eeeec63ed908233604051610631929190611ab8565b60405180910390a15050565b600080600084815260200190815260200160002090508060020160009054906101000a900473ffffffffffffffffffffffffffffffffffffffff1673ffffffffffffffffffffffffffffffffffffffff163373ffffffffffffffffffffffffffffffffffffffff16146106e5576040517f08c379a00000000000000000000000000000000000000000000000000000000081526004016106dc90611b53565b60405180910390fd5b600080600090505b82600601805490508160ff1610156107d0578373ffffffffffffffffffffffffffffffffffffffff16836006018260ff168154811061072f5761072e6119b7565b5b9060005260206000200160009054906101000a900473ffffffffffffffffffffffffffffffffffffffff1673ffffffffffffffffffffffffffffffffffffffff1614156107bd57826006018160ff168154811061078f5761078e6119b7565b5b9060005260206000200160009054906101000a900473ffffffffffffffffffffffffffffffffffffffff1691505b80806107c890611a8e565b9150506106ed565b508273ffffffffffffffffffffffffffffffffffffffff168173ffffffffffffffffffffffffffffffffffffffff161461083f576040517f08c379a000000000000000000000000000000000000000000000000000000000815260040161083690611bbf565b60405180910390fd5b60005b82600701805490508160ff161015610919578373ffffffffffffffffffffffffffffffffffffffff16836007018260ff1681548110610884576108836119b7565b5b9060005260206000200160009054906101000a900473ffffffffffffffffffffffffffffffffffffffff1673ffffffffffffffffffffffffffffffffffffffff161415610906576040517f08c379a00000000000000000000000000000000000000000000000000000000081526004016108fd90611a32565b60405180910390fd5b808061091190611a8e565b915050610842565b50600015158260080160009054906101000a900460ff16151514610972576040517f08c379a000000000000000000000000000000000000000000000000000000000815260040161096990611c51565b60405180910390fd5b81600701839080600181540180825580915050600190039060005260206000200160009091909190916101000a81548173ffffffffffffffffffffffffffffffffffffffff021916908373ffffffffffffffffffffffffffffffffffffffff16021790555060008373ffffffffffffffffffffffffffffffffffffffff168360040154604051610a0190611ca2565b60006040518083038185875af1925050503d8060008114610a3e576040519150601f19603f3d011682016040523d82523d6000602084013e610a43565b606091505b5050905080610a965782600701805480610a6057610a5f611cb7565b5b6001900381819060005260206000200160006101000a81549073ffffffffffffffffffffffffffffffffffffffff021916905590555b80610ad6576040517f08c379a0000000000000000000000000000000000000000000000000000000008152600401610acd90611d32565b60405180910390fd5b7ff8d1583a733d83bdd3ef5464129d0a95a36d62b382d31c6d0467a61f4264381b8585604051610b07929190611ab8565b60405180910390a15050505050565b60008060008381526020019081526020016000206040518061012001604052908160008201548152602001600182018054610b5090611d81565b80601f0160208091040260200160405190810160405280929190818152602001828054610b7c90611d81565b8015610bc95780601f10610b9e57610100808354040283529160200191610bc9565b820191906000526020600020905b815481529060010190602001808311610bac57829003601f168201915b505050505081526020016002820160009054906101000a900473ffffffffffffffffffffffffffffffffffffffff1673ffffffffffffffffffffffffffffffffffffffff1673ffffffffffffffffffffffffffffffffffffffff16815260200160038201548152602001600482015481526020016005820154815260200160068201805480602002602001604051908101604052809291908181526020018280548015610ccb57602002820191906000526020600020905b8160009054906101000a900473ffffffffffffffffffffffffffffffffffffffff1673ffffffffffffffffffffffffffffffffffffffff1681526020019060010190808311610c81575b5050505050815260200160078201805480602002602001604051908101604052809291908181526020018280548015610d5957602002820191906000526020600020905b8160009054906101000a900473ffffffffffffffffffffffffffffffffffffffff1673ffffffffffffffffffffffffffffffffffffffff1681526020019060010190808311610d0f575b505050505081526020016008820160009054906101000a900460ff161515151581525050905080610100015115610dc5576040517f08c379a0000000000000000000000000000000000000000000000000000000008152600401610dbc90611dff565b60405180910390fd5b62093a808160600151610dd89190611e1f565b421015610e1a576040517f08c379a0000000000000000000000000000000000000000000000000000000008152600401610e1190611f0d565b60405180910390fd5b806040015173ffffffffffffffffffffffffffffffffffffffff163373ffffffffffffffffffffffffffffffffffffffff1614610e8c576040517f08c379a0000000000000000000000000000000000000000000000000000000008152600401610e8390611f9f565b60405180910390fd5b60008160e00151518260c0015151610ea49190611fbf565b90506000826080015182610eb89190611ff3565b905060018361010001901515908115158152505060003373ffffffffffffffffffffffffffffffffffffffff1682604051610ef290611ca2565b60006040518083038185875af1925050503d8060008114610f2f576040519150601f19603f3d011682016040523d82523d6000602084013e610f34565b606091505b5050905080610f50576000846101000190151590811515815250505b80610f90576040517f08c379a0000000000000000000000000000000000000000000000000000000008152600401610f87906120bf565b60405180910390fd5b7f393073ea1365f611c3d2f240c992960d2b99dc81715555d3fc40fc55ba80af9c85604051610fbf91906120df565b60405180910390a15050505050565b6000602052806000526040600020600091509050806000015490806001018054610ff790611d81565b80601f016020809104026020016040519081016040528092919081815260200182805461102390611d81565b80156110705780601f1061104557610100808354040283529160200191611070565b820191906000526020600020905b81548152906001019060200180831161105357829003601f168201915b5050505050908060020160009054906101000a900473ffffffffffffffffffffffffffffffffffffffff16908060030154908060040154908060050154908060080160009054906101000a900460ff16905087565b600080600083815260200190815260200160002090508060020160009054906101000a900473ffffffffffffffffffffffffffffffffffffffff1673ffffffffffffffffffffffffffffffffffffffff163373ffffffffffffffffffffffffffffffffffffffff161461116d576040517f08c379a000000000000000000000000000000000000000000000000000000000815260040161116490612146565b60405180910390fd5b60005b81600601805490508160ff1610156111e2576111cf83836006018360ff168154811061119f5761119e6119b7565b5b9060005260206000200160009054906101000a900473ffffffffffffffffffffffffffffffffffffffff1661063d565b80806111da90611a8e565b915050611170565b505050565b8280546111f390611d81565b90600052602060002090601f016020900481019282611215576000855561125c565b82601f1061122e57805160ff191683800117855561125c565b8280016001018555821561125c579182015b8281111561125b578251825591602001919060010190611240565b5b50905061126991906112f7565b5090565b8280548282559060005260206000209081019282156112e6579160200282015b828111156112e55782518260006101000a81548173ffffffffffffffffffffffffffffffffffffffff021916908373ffffffffffffffffffffffffffffffffffffffff1602179055509160200191906001019061128d565b5b5090506112f391906112f7565b5090565b5b808211156113105760008160009055506001016112f8565b5090565b600080fd5b600080fd5b6000819050919050565b6113318161131e565b811461133c57600080fd5b50565b60008135905061134e81611328565b92915050565b600080fd5b600080fd5b600080fd5b60008083601f84011261137957611378611354565b5b8235905067ffffffffffffffff81111561139657611395611359565b5b6020830191508360018202830111156113b2576113b161135e565b5b9250929050565b6000806000806000608086880312156113d5576113d4611314565b5b60006113e38882890161133f565b95505060206113f48882890161133f565b94505060406114058882890161133f565b935050606086013567ffffffffffffffff81111561142657611425611319565b5b61143288828901611363565b92509250509295509295909350565b6000819050919050565b61145481611441565b811461145f57600080fd5b50565b6000813590506114718161144b565b92915050565b60006020828403121561148d5761148c611314565b5b600061149b84828501611462565b91505092915050565b600073ffffffffffffffffffffffffffffffffffffffff82169050919050565b60006114cf826114a4565b9050919050565b6114df816114c4565b81146114ea57600080fd5b50565b6000813590506114fc816114d6565b92915050565b6000806040838503121561151957611518611314565b5b600061152785828601611462565b9250506020611538858286016114ed565b9150509250929050565b61154b81611441565b82525050565b600081519050919050565b600082825260208201905092915050565b60005b8381101561158b578082015181840152602081019050611570565b8381111561159a576000848401525b50505050565b6000601f19601f8301169050919050565b60006115bc82611551565b6115c6818561155c565b93506115d681856020860161156d565b6115df816115a0565b840191505092915050565b6115f3816114c4565b82525050565b6116028161131e565b82525050565b60008115159050919050565b61161d81611608565b82525050565b600060e082019050611638600083018a611542565b818103602083015261164a81896115b1565b905061165960408301886115ea565b61166660608301876115f9565b61167360808301866115f9565b61168060a08301856115f9565b61168d60c0830184611614565b98975050505050505050565b60008160601b9050919050565b60006116b182611699565b9050919050565b60006116c3826116a6565b9050919050565b6116db6116d6826114c4565b6116b8565b82525050565b6000819050919050565b6116fc6116f78261131e565b6116e1565b82525050565b600061170e82886116ca565b60148201915061171e82876116ca565b60148201915061172e82866116eb565b60208201915061173e82856116eb565b60208201915061174e82846116eb565b6020820191508190509695505050505050565b7f4556454e5420495320414c524541445920524547495354455245440000000000600082015250565b6000611797601b8361155c565b91506117a282611761565b602082019050919050565b600060208201905081810360008301526117c68161178a565b9050919050565b82818337600083830152505050565b60006117e8838561155c565b93506117f58385846117cd565b6117fe836115a0565b840190509392505050565b600060c08201905061181e600083018a611542565b61182b60208301896115ea565b61183860408301886115f9565b61184560608301876115f9565b61185260808301866115f9565b81810360a08301526118658184866117dc565b905098975050505050505050565b7f4e4f5420454e4f55474820544f205245534552564520412053504f5400000000600082015250565b60006118a9601c8361155c565b91506118b482611873565b602082019050919050565b600060208201905081810360008301526118d88161189c565b9050919050565b7f4556454e542048415320414c5245414459205354415254454400000000000000600082015250565b600061191560198361155c565b9150611920826118df565b602082019050919050565b6000602082019050818103600083015261194481611908565b9050919050565b7f4556454e542049532041542046554c4c20434150414349545900000000000000600082015250565b600061198160198361155c565b915061198c8261194b565b602082019050919050565b600060208201905081810360008301526119b081611974565b9050919050565b7f4e487b7100000000000000000000000000000000000000000000000000000000600052603260045260246000fd5b7f414c524541445920434f4e4649524d4544000000000000000000000000000000600082015250565b6000611a1c60118361155c565b9150611a27826119e6565b602082019050919050565b60006020820190508181036000830152611a4b81611a0f565b9050919050565b7f4e487b7100000000000000000000000000000000000000000000000000000000600052601160045260246000fd5b600060ff82169050919050565b6000611a9982611a81565b915060ff821415611aad57611aac611a52565b5b600182019050919050565b6000604082019050611acd6000830185611542565b611ada60208301846115ea565b9392505050565b7f4e4f5420415554484f52495a45442c204f4e4c59204556454e54204f574e455260008201527f2043414e20434f4e4649524d20415454454e4445450000000000000000000000602082015250565b6000611b3d60358361155c565b9150611b4882611ae1565b604082019050919050565b60006020820190508181036000830152611b6c81611b30565b9050919050565b7f4e4f205253565020544f20434f4e4649524d0000000000000000000000000000600082015250565b6000611ba960128361155c565b9150611bb482611b73565b602082019050919050565b60006020820190508181036000830152611bd881611b9c565b9050919050565b7f4556454e54204445504f5349545320414c52454144592050414944204f55542060008201527f544f204556454e54204f574e4552000000000000000000000000000000000000602082015250565b6000611c3b602e8361155c565b9150611c4682611bdf565b604082019050919050565b60006020820190508181036000830152611c6a81611c2e565b9050919050565b600081905092915050565b50565b6000611c8c600083611c71565b9150611c9782611c7c565b600082019050919050565b6000611cad82611c7f565b9150819050919050565b7f4e487b7100000000000000000000000000000000000000000000000000000000600052603160045260246000fd5b7f4641494c454420544f2053454e4420455448455220544f20415454454e444545600082015250565b6000611d1c60208361155c565b9150611d2782611ce6565b602082019050919050565b60006020820190508181036000830152611d4b81611d0f565b9050919050565b7f4e487b7100000000000000000000000000000000000000000000000000000000600052602260045260246000fd5b60006002820490506001821680611d9957607f821691505b60208210811415611dad57611dac611d52565b5b50919050565b7f4556454e542048415320414c5245414459204245454e2050414944204f555400600082015250565b6000611de9601f8361155c565b9150611df482611db3565b602082019050919050565b60006020820190508181036000830152611e1881611ddc565b9050919050565b6000611e2a8261131e565b9150611e358361131e565b9250827fffffffffffffffffffffffffffffffffffffffffffffffffffffffffffffffff03821115611e6a57611e69611a52565b5b828201905092915050565b7f495420484153204e4f54204245454e203720444159532053494e43452054484560008201527f204556454e542c204445504f5349542043414e4e4f542042452050414944204f60208201527f5554000000000000000000000000000000000000000000000000000000000000604082015250565b6000611ef760428361155c565b9150611f0282611e75565b606082019050919050565b60006020820190508181036000830152611f2681611eea565b9050919050565b7f4e4f5420415554484f52495a45442c204f4e4c59204556454e54204f574e455260008201527f2043414e20574954484452415720554e434c41494d4544204445504f53495453602082015250565b6000611f8960408361155c565b9150611f9482611f2d565b604082019050919050565b60006020820190508181036000830152611fb881611f7c565b9050919050565b6000611fca8261131e565b9150611fd58361131e565b925082821015611fe857611fe7611a52565b5b828203905092915050565b6000611ffe8261131e565b91506120098361131e565b9250817fffffffffffffffffffffffffffffffffffffffffffffffffffffffffffffffff048311821515161561204257612041611a52565b5b828202905092915050565b7f4641494c454420544f2053454e4420554e434c41494d4544204445504f53495460008201527f20544f204556454e54204f574e45520000000000000000000000000000000000602082015250565b60006120a9602f8361155c565b91506120b48261204d565b604082019050919050565b600060208201905081810360008301526120d88161209c565b9050919050565b60006020820190506120f46000830184611542565b92915050565b7f4e4f5420415554484f52495a4544000000000000000000000000000000000000600082015250565b6000612130600e8361155c565b915061213b826120fa565b602082019050919050565b6000602082019050818103600083015261215f81612123565b905091905056fea264697066735822122028a2f9b6e663948f9a288a48b3ca28055311a93c613dcdfe182f2ad90ecd700c64736f6c63430008090033",
  "linkReferences": {},
  "deployedLinkReferences": {}
}